:020000040800F2
:1000000000000220E1070008590700085B0700080C
:100010005D0700085F070008610700080000000096
:10002000000000000000000000000000013A00088D
:100030006307000800000000913A00080F3700082D
:1000400031080008310800083108000831080008AC
:100050003108000865070008670700083108000834
:10006000310800083108000831080008310800088C
:10007000310800083108000831080008310800087C
:1000800031080008310800083108000800000000AD
:100090000000000000000000000000006D070008E4
:1000A0003108000831080008750700083108000809
:1000B000310800083108000831080008310800083C
:1000C000310800083108000831080008310800082C
:1000D000310800083108000831080008000000005D
:1000E000310800083108000831080008000000004D
:1000F00000000000000000000000000031080008BF
:10010000000000003108000831080008310800082C
:1001100000000000000000000000000000000000DF
:1001200031080008310800083108000831080008CB
:10013000310800080000000000000000000000007E
:10014000000000000000000000000000810700081F
:10015000310800083108000831080008310800089B
:10016000310800083108000800000000000000000D
:10017000000000000000000000000000000000007F
:10018000000000003108000800000000000000002E
:080190003108000831080008E5
:1001A00053B94AB9002908BF00281CBF4FF0FF31DE
:1001B0004FF0FF3000F00CB8ADF1080C6DE904CE43
:1001C00005F081FADDF804E0DDE9022304B07047B0
:1001D000704700BF844641EA000313F003036DD16A
:1001E000403A41D351F8043B40F8043B51F8043BFA
:1001F00040F8043B51F8043B40F8043B51F8043B01
:1002000040F8043B51F8043B40F8043B51F8043BF0
:1002100040F8043B51F8043B40F8043B51F8043BE0
:1002200040F8043B51F8043B40F8043B51F8043BD0
:1002300040F8043B51F8043B40F8043B51F8043BC0
:1002400040F8043B51F8043B40F8043B51F8043BB0
:1002500040F8043B51F8043B40F8043B51F8043BA0
:1002600040F8043B403ABDD2303211D351F8043B40
:1002700040F8043B51F8043B40F8043B51F8043B80
:1002800040F8043B51F8043B40F8043B103AEDD2EF
:100290000C3205D351F8043B40F8043B043AF9D240
:1002A000043208D0D2071CBF11F8013B00F8013B13
:1002B00001D30B8803806046704700BF082A13D320
:1002C0008B078DD010F003038AD0C3F10403D21A38
:1002D000DB071CBF11F8013B00F8013B80D331F86C
:1002E000023B20F8023B7BE7043AD9D3013A11F8EC
:1002F000013B00F8013BF9D20B7803704B78437057
:100300008B7883706046704710B5054C237833B9FD
:10031000044B13B10448AFF300800123237010BDD8
:100320004009002000000000B45E000808B5034B3F
:100330001BB103490348AFF3008008BD0000000073
:1003400044090020B45E000808B504F09FFF0120B6
:1003500003F05DFAFBE708B5012003F058FAFBE76C
:1003600008B50B4A0221402003F05DFA094B0A4A06
:1003700018600021094803F003FA094B094A186084
:100380000021094803F0FCF9084B186008BD00BFC4
:10039000145F000860090020F05E000849030008AF
:1003A0005C0900202C5F0008570300086409002046
:1003B00030B514228BB00DEB0200002105F002FBDA
:1003C0000024304B01941A6B2F4842F004021A6348
:1003D0001A6B02F004020192019A02941A6B42F025
:1003E00080021A631A6B02F080020292029A03944E
:1003F0001A6B42F001021A631A6B02F001020392B7
:10040000039A04941A6B42F002021A631B6B03F006
:100410000203224604934FF400510125049B00F08F
:1004200063FB4FF4005305A91748CDE90535CDE925
:10043000074400F091FA4FF4041305A913480595F9
:10044000CDE9063500F088FA4FF480724FF444137A
:10045000CDE9052305A902230C48079300F07CFA97
:1004600022460521062000F037FA062000F066FA41
:1004700022460521172000F02FFA172000F05EFA1F
:100480000BB030BD003802400008024000000240BE
:1004900038B5044600F0F4F90E4D012C286003D065
:1004A000B4F5807F0ED038BD0B4C2368C01AB0F570
:1004B000967FF8D909484FF4005100F01AFB2B68D9
:1004C0002360F0E7BDE8384004484FF4005100F0E5
:1004D00010BB00BF680900206C0900200008024022
:1004E00008B50B480B4A0C4BC0E9002300234FF41E
:1004F0008042C0E90233C0E90423C0E90633036245
:1005000000F00CFB18B1BDE8084000F0B5B808BD1C
:100510007009002000540040A086010030B5044658
:1005200089B01422002103A805F04CFA2268134B6D
:100530009A4221D1124C134800250195236B43F0B8
:1005400002032363236B03F002030193019BC02288
:100550001223CDE9032303210423CDE9061303A9C4
:1005600000F0FAF90295236C43F400132364236C22
:1005700003F400130293029B09B030BD0054004005
:10058000003802400004024010B594B0102200214F
:100590000AA805F017FA1422002103A805F012FAA0
:1005A0001F4B002101911A6C42F080521A641B6C9F
:1005B00003F080530193019B1A4B02911A6842F495
:1005C00040421A601B6803F440430293029B0122DD
:1005D0004FF480330224CDE908234FF48003CDE9A2
:1005E0000E431921C023CDE9101308A80423129447
:1005F000139301F095F808B172B6FEE70F23CDE929
:1006000003344FF48053CDE906300590032103A84D
:1006100001F060FA08B172B6FEE714B010BD00BF79
:10062000003802400070004008B500F003F9FFF701
:10063000ABFFFFF7BDFEFFF753FF03F075F8FFF7C1
:100640008FFE03F083F8FEE708B589B204F072FE6E
:10065000BDE8084002484FF4005100F04ABA00BF1C
:10066000000802400268034B9A4201D100F0FCB836
:10067000704700BF0048014072B6FEE707B5174B50
:1006800000220092596C41F480415964596C01F484
:100690008041009100990192196C41F080511964D8
:1006A0001B6C03F0805301930F216FF00100019B3D
:1006B00000F012F905210846002200F00DF905208E
:1006C00000F03CF905210846002200F005F905205C
:1006D00003B05DF804EB00F031B900BF0038024010
:1006E00030B5014689B000221A2000F0F5F81A2032
:1006F00000F024F90025144B02955A6C134C42F477
:1007000080225A645B6C03F48023029301A903A83E
:10071000029B01F09FFA01F08DFA0D4B236040F22D
:10072000E733E3600B4BB0FBF3F001386060204629
:100730002561A56001F0D4FB20B9204601F0AAFA9A
:1007400009B030BD0120FBE700380240C409002099
:100750000048014040420F00FEE7FEE7FEE7FEE7EB
:10076000FEE770477047012000F0CCB94FF480706D
:1007700000F0C8B9014801F0C3BA00BFC4090020A5
:10078000014800F05FBC00BF9C7000200B4A11685C
:1007900010B5034609B90A491160106809490A4CA5
:1007A0000344091B8B4206D905F0CCF80C230360E7
:1007B0004FF0FF3010BD1360FCE700BF0C0A0020B3
:1007C000007800200000022000040000034AD2F854
:1007D000883043F47003C2F88830704700ED00E0C1
:1007E000DFF834D00D480E490E4A002302E0D458F9
:1007F000C4500433C4188C42F9D30B4A0B4C002369
:1008000001E013600432A242FBD3FFF7DFFF05F0E3
:10081000B5F8FFF709FF7047000002200000002034
:100820003C090020C45F0008400900200078002037
:10083000FEE7000008B50B4B1A6842F400721A601C
:100840001A6842F480621A601A6842F480721A6070
:10085000032000F02FF80F20FFF742FFFFF70EFFF5
:10086000002008BD003C0240034A044B11681B787D
:100870000B441360704700BF100A002004000020E2
:10088000014B1868704700BF100A002038B50446B5
:10089000FFF7F6FF631C1CBF054B1B78054618BF0E
:1008A000E418FFF7EDFF431BA342FAD338BD00BFA6
:1008B000040000200749CA6822F4E062030212041F
:1008C00003F4E063120C134343F0BF6343F40033BB
:1008D000CB60704700ED00E0164B30B5DC68C4F328
:1008E0000224C4F10703251D042B28BF0423062D71
:1008F0004FF0FF358CBF033C002405FA03F321EAD7
:100900000303A54022EA0502A340002843EA0203AC
:10091000ACBF00F16040084A4FEA0313B8BF00F0D3
:100920000F00DBB2AABF00F56140135480F800331A
:1009300030BD00BF00ED00E014ED00E0002807DB53
:100940004109044A00F01F000123834042F821308E
:10095000704700BF00E100E02DE9F74FDFF8849118
:100960005E4A00230D6801249C4004EA050CAC4358
:1009700040F0A5804D6805F003044FEA43080326C4
:10098000671E06FA08F6012F6FEA060634D8876854
:1009900007EA060ECF6807FA08F747EA0E078760EE
:1009A000476827EA0C0EC5F300179F4047EA0E0779
:1009B0004760C76807EA060E8F6807FA08F747EA34
:1009C0000E07022CC76019D14FEAD30A00EB8A0A3E
:1009D00003F0070BDAF820704FEA8B0B4FF00F0E85
:1009E0000EFA0BFE27EA0E0E0F6907FA0BF747EA1D
:1009F0000E07CAF8207001E0032CDAD1076804FA68
:100A000008F437403C4315F4403F046057D04FF0A2
:100A1000000ACDF804A0D9F84460314C46F4804671
:100A2000C9F84460D9F8446006F480460196019EF6
:100A300023F0030606F1804606F59C3603F0030E0C
:100A4000D6F808804FEA8E0E0F2707FA0EF7A0425D
:100A500028EA07073AD004F58064A04238D004F5AC
:100A60008064A04236D004F58064A04234D004F5FE
:100A70008064A0420CBF0424072404FA0EF43C4313
:100A8000B46094686FEA0C06EF0254BF34404CEA3D
:100A900004049460D468AF0254BF34404CEA0404A8
:100AA000D4605468AF0354BF34404CEA040454602B
:100AB0001468ED0354BF34404CEA0404146001335D
:100AC000102B7FF44FAF03B0BDE8F08F5446D4E74E
:100AD0000124D2E70224D0E70324CEE7003C014002
:100AE00000000240003802400AB1816170470904E9
:100AF000FBE7436901EA030221EA030141EA0241FB
:100B000081617047044A5169014208B502D05061C1
:100B1000FFF7BEFC08BD00BF003C014070B50446B5
:100B200008B9012070BD90F83D3003F0FF021BB9F9
:100B300080F83C20FFF7F2FC242384F83D30236842
:100B40001A6822F001021A601A6842F400421A6020
:100B50001A6822F400421A6001F05CF83F4B6568A5
:100B60009D4294BF3E4B3F4B98428CBF00230123D4
:100B7000002BD6D12268394E51683B4BB0FBF3F3C2
:100B800021F03F011943B542516088BF4FF496767A
:100B9000116A88BF734321F03F0184BF4FF47A7616
:100BA000B3FBF6F301330B431362D169431E2B48A9
:100BB00021F44F41854221F0FF0132D86D0040F60B
:100BC000FC70B3FBF5F30133034242D0C3F30B03D4
:100BD0001943D161D4E907301168034321F0C00102
:100BE0000B4313609168D4E9030321F403410343E9
:100BF00021F0FF010B439360D4E90530D168034332
:100C000021F0FF010B43D360136843F0010313602D
:100C100000202023206484F83D30206384F83E00C7
:100C200080E7A06850B905EB4505B3FBF5F3013348
:100C3000C3F30B037BB143F40043C9E719206843B6
:100C4000B3FBF0F30133C3F30B0323B143F440438D
:100C5000BEE70423BCE70123BAE700BFA08601007A
:100C60007F841E00FF083D0040420F00F0B504469F
:100C70008BB060B390F8BD34056803F0FF021BB978
:100C800080F8BC2404F0E4FB032384F8BD34EB6B50
:100C9000254613F4807355F8100B08BF236101F04B
:100CA00029FA0FCD6E460FC60FCD0FC695E803008B
:100CB00086E803002546271D97E80E0055F8100B1F
:100CC00001F062F9064620B1022384F8BD34012503
:100CD0004EE00146206801F013FA3046D4F804C013
:100CE00024264FF0010E0146C2B2944500F10100E6
:100CF0001CD8002324261946D8B2844503F10103E9
:100D000022D80FCD6E460FC60FCD0FC695E8030053
:100D100086E8030097E80E00206801F073FA0123CB
:100D20000546F0B1022284F8BD24D0E706FB024359
:100D3000C3E9121183F83DE083F83C20A3F8442076
:100D400083F840105965CFE706FB0042C2E9A211C3
:100D500082F87D1282F87C0282F88012C2F8941226
:100D6000CAE784F83800206884F8BD3401F0F0FD4B
:100D700028460BB0F0BD10B50446006894F8BC34AA
:100D8000012B15D0012384F8BC34A36A012B06D1B2
:100D9000A369012B1EBF836B43F48033836301F08F
:100DA000A3F9206801F0C6FD002084F8BC0410BD42
:100DB0000220FCE710B590F8BC24012A04460BD0B1
:100DC000012280F8BC2480F83810006801F0A2FDF0
:100DD000002084F8BC0410BD0220FCE770B501F0CF
:100DE0000F0606EBC60411F0800F05464FEA840497
:100DF0004FF024001FD000FB065004F13C010124F9
:100E0000294480F83D40CA604A780E700B7102B1E7
:100E10000E81022B04BF00234B7195F8BC34012BCB
:100E200012D00123286885F8BC3401F0AEFA002006
:100E300085F8BC0470BD00FB065004F51F7100244A
:100E4000294480F87D42DEE70220F3E710B504462E
:100E500001F00F0000EBC00311F0800F4FEA830395
:100E60004FF0240216D002FB004203F13C010123A3
:100E7000214482F83D30087094F8BC34012B12D024
:100E80000123206884F8BC3401F0BEFA002084F805
:100E9000BC0410BD02FB004203F51F710023214476
:100EA00082F87D32E7E70220F3E738B501F00F055D
:100EB000242404FB050104FB050401F51F71C4F89B
:100EC00094320023C4F88C22C4F89C3284F87D321A
:100ED00084F87C5203690068012B08BFC4F8902293
:100EE000DAB21DB901F0E6FA002038BD01F0B4FB1A
:100EF000FAE701F00F01242303FB0100D0F89C0264
:100F0000704738B501F00F05242404FB050104FBEC
:100F100005043C3163650023E3650123E26484F842
:100F20003D3084F83C5003690068012B08BF2265FE
:100F3000DAB21DB901F0BEFA002038BD01F08CFB19
:100F4000FAE738B5436801F00F059D4204462ED8F4
:100F500011F0800F4FF024021FD002FB050302FBAB
:100F6000050201213C3382F83D1001229A701D7068
:100F700094F8BC1491421CD0206884F8BC24194613
:100F800001F074FC2DB9217C206804F2C44201F008
:100F90002FFD002084F8BC0438BD02FB010302FBD6
:100FA0000101002203F51F7381F87D22DDE7012096
:100FB000F2E70220F0E738B5436801F00F029A42E9
:100FC00004462AD802EBC20311F0800F4FEA8303D4
:100FD0004FF0240018D000FB024003F13C01012334
:100FE000214480F83D3000258D700A7094F8BC349F
:100FF000012B14D00123206884F8BC3401F061FC7B
:1010000084F8BC54284638BD00FB024003F51F712C
:101010000023214480F87D32E5E70120F3E7022038
:10102000F1E701F00F0303EBC3030A064FEA830362
:101030004CBF03F13C0103F51F710144006801F04E
:10104000B5BA00002DE9F04F066889B00446304675
:1010500001F0BAFC0390002840F05781206801F0AD
:1010600085FC002800F05181D6F808382068C3F3C9
:101070000D23C4F8FC3401F079FC870748BF2268CF
:10108000206842BF536903F00203536101F06EFC14
:10109000C00606F500652CD52268936923F010037D
:1010A0009361D6F82080C8F34343022B08F00F0762
:1010B00040F02E8147F6F07318EA030F14D0242372
:1010C00003FB0747C8F30A19D7F88C124A46304683
:1010D00001F0ACFBD7F88C324B44C7F88C32D7F810
:1010E0009C324B44C7F89C322268936943F010034A
:1010F0009361206801F03AFC010300F11B81206834
:1011000001F034FC42030DD5206801F03BFC27467A
:10111000049006F5106A4FF00009049B2068002B2C
:1011200040F0D081206801F021FC002813DA6B68C0
:1011300023F001036B6094F8F434012B40F06B82D0
:10114000002184F8F414204600F0E8FA226853697C
:1011500003F000435361206801F008FC01050AD543
:10116000AB68DA0702D5204604F0E2F92268536939
:1011700003F400635361206801F0F8FBC30433D526
:101180006B68206823F001036B60102100F0E8FF1A
:1011900006F510634FF67F3162680398824200F2D1
:1011A0004382EB6943F00113EB61236B002B00F0EA
:1011B0005382D5F8843043F00B03C5F884306B6C50
:1011C00043F00B036B64D6F80038217C206823F4CD
:1011D000FE63C6F8003804F2C44201F009FC22683C
:1011E000536903F480535361206801F0BFFB870407
:1011F00016D5206801F0ECFB206801F0BBF8E06038
:10120000276800F001FD227B0146384600F0FCFE15
:10121000204604F07AF92268536903F400535361BD
:10122000206801F0A3FB000707D5204604F069F908
:101230002268536903F008035361206801F096FBAC
:10124000010600F11482206801F090FBC2020CD567
:10125000A04606F5126901276368BB4200F22082AE
:101260002268536903F480135361206801F07EFB08
:1012700083022DD5D4F804E0234606F5326001211F
:101280008E4520D993F8A4C20268BCF1010F40F04A
:101290001D82002A80F21A82D4F8FC7402F4803293
:1012A00007F00107BA4240F0118283F8A3C2B26985
:1012B00042F08002B2617269170600F107826B6822
:1012C00043F400736B602268536903F400135361A5
:1012D000206801F04BFB410007D5204604F04CF993
:1012E0002268536903F080435361206801F03EFB9C
:1012F00042070AD523685D686B0702D5204604F0D3
:101300003FF9226853682B43536009B0BDE8F08F62
:10131000062B7FF4E9AE082204F2C441304601F006
:1013200085FA242303FB0747C8F30A18D7F89C3231
:101330004344D7E6206801F01DFB06F530680490B1
:10134000A2460027049B2068002B3FF4D8AE049BE4
:10135000DB0775D55FFA87FB594601F01BFB10F0E0
:10136000010F81461CD0206821690123C8F808308C
:1013700000F5306303EB47130129D0F840C09A68A9
:1013800040F08B80110707D5A5498C4508D910047A
:1013900006D54FF4004202E091065AD520229A6009
:1013A00019F0080F21D00823C8F8083023689C489A
:1013B0001A6C03F5306303EB47138242996804D932
:1013C000090444BF4FF4004199602046059204F09F
:1013D00081F8934B059A9A4207D92169012904D1D2
:1013E000206804F2C44201F003FB19F0100F1CBF87
:1013F0001023C8F8083019F0020F14D073691A06C8
:1014000042BF6B6843F480636B609AF87F32012BB4
:1014100006D100238AF87F325946204604F0A4F80A
:101420000223C8F8083019F0200F1CBF2023C8F889
:10143000083019F4005F1CBF4FF40053C8F808309F
:10144000049B5B080137049308F120080AF1240A81
:1014500078E712F0280FA3D171498C4501D9120405
:1014600097D41A69DAF89832C2F312029B1ACAF8B2
:101470009C326FB9D4F894222AB904F2C4420121F3
:1014800001F0B6FA04E0D4F88C221A44C4F88C2295
:101490005946204604F024F882E762498C4507D17A
:1014A00011043FF576AF9006F2D520229A60EFE75F
:1014B000002FEDD1D4F89432002BE9D104F2C442CC
:1014C0003946DDE7049BDB0740F19C805FFA89FB2E
:1014D000594601F068FA10F0010F804620D0012132
:1014E0006B6B09F00F0201FA02F223EA02036B634D
:1014F0000B46CAF80810216999420DD1D7E9122389
:101500001344FB64B9F1000F06D1636D23B9206861
:1015100004F2C44201F06CFA5946204603F0E9FF98
:1015200018F0080F1CBF0823CAF8083018F0100F75
:101530001CBF1023CAF8083018F0400F1CBF40230E
:10154000CAF8083018F0020F12D04946304600F0B1
:1015500007FE97F83F30012B07D14FF0000387F8C3
:101560003F305946204604F003F80223CAF80830F9
:101570002368059318F0800F44D0FA6D7B6D9A4272
:1015800040D89B1ABA6C934228BF134603339B087A
:101590000693059B03F5106303EB49130793079B21
:1015A00006989969FA6D7B6D89B2814228D39A4277
:1015B0000CD3059B09F00F01D3F83428012000FA61
:1015C00001F122EA0102C3F834281BE0A3EB020870
:1015D000BB6C0598984528BF984608F103039B0803
:1015E0000693237C0093F96C1FFA88F35A4601F0A6
:1015F0001FF8FB6C4344FB64FB6D4344FB65CEE783
:101600009A42D6D2049B5B0809F10109049324375E
:101610000AF1200A81E5204603F0A2FF96E500BF0B
:101620000A30544F0A31544F99601A6822F400125C
:101630001A60C3F80812D3F8002222F40012C3F88B
:101640000022D3F8002242F00062C3F80022039A7D
:101650000132039220339FE56B6943F4005343F05A
:101660002B036B612B6943F00B032B61ABE5B36973
:1016700023F08003B361012704F27F284FF024098F
:101680006368BB427FF6DFAD09FB07F318F8033050
:10169000012B03D1F9B22046FFF7C3FC0137EFE776
:1016A00098F86430D9F80020012B09D1002A07DA14
:1016B00067F07F0188F86330C9B22046FFF7B1FCBC
:1016C000013708F1240809F12009C5E50131243367
:1016D0002030D5E5006870B51204446A19B9224378
:1016E0008262002070BD836A4D1E04EB1344002308
:1016F0005E1CDBB29D4205D83F3100EB81002243E6
:101700004260EEE7403300EB83035B6804EB134475
:101710003346EDE7036800205962704770470000C8
:101720002DE9F341044640B30368DD0710D4236874
:1017300098075BD423681A0700F19D8023685B0734
:1017400000F1BD80A069002840F0248100202CE039
:101750008D4B9A6802F00C02042A07D09A6802F0B6
:101760000C02082A0BD15B68590208D5864B1B680E
:101770009A03DCD56368002BD9D1012015E063689A
:10178000814DB3F5803F13D12B6843F480332B6038
:10179000FFF776F87C4E054633689B03C7D4FFF706
:1017A0006FF8401B6428F7D9032002B0BDE8F08130
:1017B000B3F5A02F04D12B6843F480232B60E3E71B
:1017C0002A6822F480322A602A6822F480222A6061
:1017D000002BDDD1FFF754F806462B689F03A6D5F2
:1017E000FFF74EF8801B6428F7D9DDE7664B9A684F
:1017F00012F00C0F07D09A6802F00C02082A11D1DF
:101800005B685E020ED4604A13689D0702D5E368E8
:10181000012BB2D11368216923F0F80343EAC10315
:10182000136087E7E268594BB2B101221A60FFF7F3
:1018300027F8554D06462B68980707D52B6822696F
:1018400023F0F80343EAC2032B6073E7FFF718F8AD
:10185000801B0228EFD9A7E71A60FFF711F84A4E5C
:101860000546336899077FF565AFFFF709F8401B18
:101870000228F6D998E76269444B82B10122C3F885
:10188000802EFEF7FDFF404E0546736F9F073FF524
:1018900055AFFEF7F5FF401B0228F6D984E7C3F8E1
:1018A000802EFEF7EDFF384E0546736F98077FF5E3
:1018B00045AFFEF7E5FF401B0228F6D974E7324B2F
:1018C0001A6C12F0805228D101921A6C42F08052A8
:1018D0001A641B6C03F080530193019B01272C4D6C
:1018E0002B68D9051BD5A368274D012B27D12B6F5A
:1018F00043F001032B67FEF7C3FF234E054641F279
:101900008838336F9B0739D5002F3FF41BAF1E4A31
:10191000136C23F08053136414E70027DFE72B6870
:1019200043F480732B60FEF7ABFF06462B68DA05A5
:10193000D9D4FEF7A5FF801B0228F7D934E7052B81
:1019400004D12B6F43F004032B67D0E72A6F22F0FA
:1019500001022A672A6F22F004022A67002BCAD1EB
:10196000FEF78EFF41F2883806462B6F9807CBD5DD
:10197000FEF786FF801B4045F7D915E7FEF780FF8D
:10198000401B4045BDD90FE70038024000004742E8
:1019900000700040364DAB6803F00C03082B3DD0BF
:1019A000344B002202281A662BD1FEF769FF064647
:1019B0002B6899011FD4D4E907321343626A43EAC2
:1019C0008213E26A43EA0263A26A5208013A43EAD6
:1019D00002436B60274B264D01221A66FEF750FF2B
:1019E00004462B689A013FF5B1AEFEF749FF001B94
:1019F0000228F6D9D8E6FEF743FF801B0228D7D984
:101A0000D2E6FEF73DFF04462B689B017FF59EAEB4
:101A1000FEF736FF001B0228F6D9C5E601283FF481
:101A2000C4AE6B68E26903F4800191427FF4A5AE15
:101A3000216A03F03F028A427FF49FAE616A47F653
:101A4000C0721A40B2EB811F7FF497AEA26A5208AF
:101A500003F44031013AB1EB024F7FF48EAEE26AFB
:101A600003F07063B3EB026F3FF470AE85E600BF26
:101A70000038024000004742134908B58B6803F064
:101A80000C03042B1CD0082B1CD14A684B684968F6
:101A900013F4800314BF0D480D48C1F3881118BF1B
:101AA000002302F03F02A1FB0001FEF779FB064B89
:101AB0005B68C3F3014301335B00B0FBF3F008BD87
:101AC0000248FCE70248FAE70038024040787D010E
:101AD0000024F4002DE9F0410D46044610B9012020
:101AE000BDE8F081434B1A6802F007028A4228D30E
:101AF00021688F072DD4C80740D43E4B1A6802F0E6
:101B00000702AA4265D8226851076BD4130707D58C
:101B1000394A2169936823F4604343EAC10393601F
:101B2000FFF7AAFF344B354A9B68C3F30313D35C1A
:101B3000D840334B1860334B1868FEF7D1FD0020B6
:101B4000CEE7CAB21A701B6803F007038B42C6D1F6
:101B5000CEE7294B11F0040F1EBF9A6842F4E05201
:101B60009A600E0742BF9A6842F460429A609A688F
:101B7000A06822F0F00202439A60BCE762681E4B44
:101B8000012A1CD11B6813F4003FA8D01A4EB36879
:101B900023F003031343B360FEF772FE41F288386B
:101BA0000746B368626803F00C03B3EB820FA4D05E
:101BB000FEF766FEC01B4045F3D9032090E7911E57
:101BC00001291B6802D813F0007FDEE713F0020F33
:101BD000DBE7EAB21A701B6803F00703AB427FF43D
:101BE0007EAF90E70449E0688B6823F4E053034339
:101BF0008B608BE7003C024000380240505F0008D9
:101C00000000002008000020014B1868704700BF4A
:101C100000000020044B054A9B68C3F38223D35C79
:101C2000034A1068D840704700380240605F0008DF
:101C300000000020044B054A9B68C3F34233D35C89
:101C4000034A1068D840704700380240605F0008BF
:101C5000000000200F2303600B4B9A6802F0030280
:101C600042609A6802F0F00282609A6802F4E052E0
:101C7000C2609B68DB0803F4E0530361034B1B68FD
:101C800003F007030B60704700380240003C02403D
:101C90007047000090F83D30012B28D1022380F8D6
:101CA0003D300368DA6842F00102DA60114A93427B
:101CB00012D0B3F1804F0FD0A2F57C4293420BD0EB
:101CC00002F58062934207D002F58062934203D00E
:101CD00002F59A32934204D19A6802F00702062A6A
:101CE00003D01A6842F001021A60002070470120F8
:101CF000704700BF00000140704770477047704751
:101D000003681A69910710B504460ED5DA68920780
:101D10000BD56FF002021A61012202779B699B07C3
:101D200077D0FFF7EAFF0023237723681A6950076B
:101D300010D5DA6851070DD56FF004021A6102223E
:101D400022779B6913F4407F204668D0FFF7D5FFC8
:101D50000023237723681A6912070FD5DA68100762
:101D60000CD56FF008021A6104222277DB6999070B
:101D700020465AD0FFF7C1FF0023237723681A6952
:101D8000D20610D5DA68D0060DD56FF010021A61B0
:101D900008222277DB6913F4407F20464BD0FFF7FF
:101DA000ACFF0023237723681A69D10708D5DA68C6
:101DB000D20705D56FF001021A612046FEF752FCEA
:101DC00023681A69100608D5DA68110605D56FF080
:101DD00080021A61204600F0B0F823681A695206A2
:101DE00008D5DA68500605D56FF040021A61204622
:101DF000FFF785FF23681A69910622D5DA689206F3
:101E00001FD56FF0200220461A61BDE8104000F097
:101E100093B8FFF771FF2046FFF770FF83E7FFF7E6
:101E20006BFF2046FFF76AFF92E7FFF765FF20464A
:101E3000FFF764FFA0E7FFF75FFF2046FFF75EFFB5
:101E4000AFE710BD244A036890420ED0B0F1804F36
:101E50000BD0A2F57C42904207D002F580629042FE
:101E600003D002F58062904215D14A6823F07003D6
:101E70001343194A904219D0B0F1804F16D0A2F501
:101E80007C42904212D002F5806290420ED002F560
:101E9000806290420AD0114A904207D002F58062D7
:101EA000904203D002F58062904203D1CA6823F4C5
:101EB000407313434A6923F08003134303608B6824
:101EC000C3620B688362044B984204BF0B690363CF
:101ED00001234361704700BF000001400040014002
:101EE00010B5044630B390F83D3003F0FF021BB943
:101EF00080F83C20FFF7CCFE0223206884F83D30B8
:101F0000211DFFF79FFF012384F84630002084F84D
:101F10003E3084F83F3084F8403084F8413084F813
:101F2000423084F8433084F8443084F8453084F8F3
:101F30003D3010BD0120FCE77047704782B00023A0
:101F4000104A0193019B01330193019B934216D8E0
:101F50000369002BF6DA002301930369094A43F071
:101F600001030361019B01330193019B934206D856
:101F7000036913F00103F5D1184602B0704703203E
:101F8000FBE700BF400D030084B038B505AD85E820
:101F90000E000A9B012B044625D1836B23F480336A
:101FA0008363C36823F4840323F04003C360C368DE
:101FB00023F44013C360119B012B02BFC36843F499
:101FC0008013C360FFF7BAFF089B012B07D1A368FA
:101FD00043F00603A360A36843F02003A360BDE8B9
:101FE000384004B07047C36843F04003C360FFF754
:101FF000A5FF0E9B23B9A36B43F48033A363E3E7F0
:10200000A36B23F48033F9E7022A4AD1274B284AED
:102010000B44934239D9274B274A0B44934236D974
:10202000264AA1F57403A3F51053934231D9244AEB
:10203000A1F18373A3F5E74393422CD3214B224AAA
:102040000B44934229D9214B214A0B44934226D376
:10205000204B214A0B44934223D3204AA1F1B7736A
:10206000A3F5585393421ED31D4B1E4A0B44934273
:1020700034BF07230623C26822F47052C260C268CC
:1020800042EA8323C360002070470F23F3E70E2347
:10209000F1E70D23EFE70C23EDE70B23EBE70A2332
:1020A000E9E70923E7E70823E5E700BF405327FFF7
:1020B000FF340C00401E1BFF3F420F007F4F1200F9
:1020C00020D6130060B6E5FE5FE3160000D3CEFE17
:1020D00040771B00C05BB3FEC09121002075380023
:1020E000E05459FEE09C4100836843F001038360A3
:1020F00000207047836823F001038360002070474D
:1021000038B5C368012923F0C0430546C36010D128
:10211000C36843F00053C36000240120FEF7B6FB00
:102120006B69D90704F1010415D4322CF5D10120D3
:1021300038BD0029FBD1C36843F08043C3600C461F
:102140000120FEF7A3FB6B69DA0704F1010402D555
:10215000322CF5D1EBE7A4F1320358425841E7E7BE
:1021600082B00023104A0193019B01330193019B2C
:10217000934216D80369002BF6DA8901002341F057
:102180002001094A01930161019B01330193019BE5
:10219000934206D8036913F02003F5D1184602B024
:1021A00070470320FBE700BF400D030082B000230F
:1021B0000F4A0193019B01330193019B934214D871
:1021C0000369002BF6DA00230193094A1023036107
:1021D000019B01330193019B934206D8036913F0DD
:1021E0001003F5D1184602B070470320FBE700BF8B
:1021F000400D0300D0F800381943C0F80018002043
:102200007047000084B02DE9F843044609A880E82F
:102210000E00139D00230E46194603F1400204EB05
:10222000820201330F2B5160F7D104F50067002DB6
:102230006CD17B6843F002037B60A36B43F4001313
:10224000A363A36B23F40023A363A36B23F4802372
:10225000A3630023C4F8003ED4F80038C4F8003863
:102260000E9B012B5CD10B99002957D12046FFF71B
:10227000C1FF10212046FFF773FF01462046FFF7FC
:1022800095FF0843C0B2002300383B6118BF01200E
:102290007B6104F51062FB6119464FF0904C4FF0E2
:1022A000006E4FF67F38B3423CD1002204F5306314
:1022B00011464FF0904C4FF0006E4FF67F38B2420F
:1022C00043D13B6923F480733B610023A3616FF02A
:1022D000804363610C9B1BB9A36943F01003A361A6
:1022E000A269234B1343A3610F9B1BB1A36943F066
:1022F0000803A361012D01BFA36943F0804343F0AC
:102300000403A361BDE8F84304B07047A36B23F452
:102310000013A363A36B43F4002399E71946A5E7D1
:102320000321A3E7D2F80090B9F1000F0BDA3BB913
:10233000C2F800E011610133C2F808802032B2E730
:10234000C2F800C0F6E71160F4E7D3F80090B9F1E5
:10235000000F0BDA3AB9C3F800E019610132C3F893
:1023600008802033ABE7C3F800C0F6E71960F4E754
:1023700000383C80D0F8083813F0060004D013F081
:10238000020F14BF02200F20704730B50C780122D5
:1023900004F00F05AA404D78012D00F5006300EB15
:1023A000441019D1DD692A43DA61D0F800391A04E2
:1023B00010D4CA68D0F80059C2F30A030A792B4333
:1023C00043EA824343EA845343F0805343F4004397
:1023D000C0F80039002030BDDC6944EA0242DA610D
:1023E000D0F8003B1B04F5D4CB68D0F8002BC3F326
:1023F0000A0313430A7943EA824343F0805343F4C8
:102400000043C0F8003BE5E710B50A784978012998
:1024100000EB421300F5006002F00F0222D1D3F866
:10242000001900290BDAD3F8001941F00061C3F854
:102430000019D3F8001941F08041C3F80019C46BAA
:10244000012101FA02F224EA0204C463C16921EA0B
:102450000202C261D3F80019144A0A40C3F80029E5
:10246000002010BDD3F8001B00290BDAD3F8001BA5
:1024700041F00061C3F8001BD3F8001B41F080411C
:10248000C3F8001BC46B4FF4803101FA02F224EA56
:102490000204C463C16921EA0202C261D3F8001BCD
:1024A000034A0A40C3F8002BDAE700BF007833EC98
:1024B0000078F3EF4B78DFF8F0C0F0B50E788D6957
:1024C000384F012B00EB461446D104F51063BDB91B
:1024D0001D693D401D611D6945F400251D611D6993
:1024E00005EA0C05012A1D6123D14A6902B15A612E
:1024F000D4F8003943F00443C4F800390020F0BD9B
:10250000D3F810E00EEA0C0CC3F810C0D3F810C0DA
:102510000CEA07071F61CF68AF421D6938BF8F61A2
:1025200045F400251D618D691F69C5F312053D4302
:10253000D8E7D4F8003943F00443C4F800398B6974
:10254000002BDBD0D0F8342806F00F060123B3406F
:102550001343C0F83438D1E7D4F8100B00EA0C006C
:10256000C4F8100BD4F8100B384004F53063186130
:10257000C86805B188611D69C86145F400251D6101
:102580001D69C0F312002843012A186102D10A69AB
:1025900002B15A61D4F8003B43F00443C4F8003B55
:1025A000ACE700BFFFFF07E00000F8FF82B00023A8
:1025B0004A7801930B78012A4FEA43131ED100F5A4
:1025C0001060C118C258002A02DB002002B0704718
:1025D000C25842F00062C250C25842F08042C2501B
:1025E00042F21072019B01330193019B934201D986
:1025F0000120EBE70B68002BF4DBE6E700F5306029
:10260000C118C258002AE0DAC25842F00062C25033
:10261000C25842F08042C25042F21072019B013314
:102620000193019B9342E3D80B68002BF6DBCCE7C8
:1026300010B59DF8084044B9033301329B0800EB04
:10264000023001EB83038B4201D1002010BD51F811
:10265000042B0260F7E700002DE9F3414D788B6908
:102660000F79DFF8BCC1DFF8BCE116460A78012D0E
:1026700000EB421440F08B8004F51065D5F8108013
:102680006BBB08EA0C0CC5F810C0D5F810C04CF4B0
:10269000002CC5F810C0D5F810C00CEA0E0CC5F817
:1026A00010C0012E4CD14B6903B16B61012F0CD1CD
:1026B000D0F8083813F4807FD4F800390CBF43F009
:1026C000005343F08053C4F80039D4F8003943F084
:1026D0000443C4F80039002002B0BDE8F08108EAE4
:1026E0000E0EC5F810E0D5F810E00EEA0C0CC5F897
:1026F00010C0D1F80CC0D5F810800CEB030E0EF111
:10270000FF3EBEFBFCFEDFF820C10CEACE4C4CEADB
:10271000080CC5F810C0D5F810E0C3F3120C4CEA51
:102720000E0C012FC5F810C0BBD1D5F810C02CF08D
:10273000C04CC5F810C0D5F810C04CF0005CAEE736
:10274000D4F80059012F45F00445C4F800590BD0C6
:10275000002BC0D0D0F8341802F00F0201239340B0
:102760000B43C0F83438B6E7D0F8085815F4807F2A
:10277000D4F800590CBF45F0005545F08055C4F819
:102780000059009609699BB2FFF752FFA3E7D4F8FE
:10279000105B05EA0E05C4F8105BD4F8105B05EA7F
:1027A0000C0504F530621561CD681BBB1369C5F3D8
:1027B00012051D431561136943F400231361012EB3
:1027C00002D10B6903B15361012F0CD1D0F8083845
:1027D00013F4807FD4F8003B0CBF43F0005343F068
:1027E0008053C4F8003BD4F8003B43F00443C4F8E2
:1027F000003B70E72B44DFF830C0D2F810E0013B1B
:10280000B3FBF5F39BB25D430CEAC34343EA0E030B
:10281000CD6113611369C5F312051D431561CEE740
:10282000FFFF07E00000F8FF0000F81F70B500236D
:10283000940800F5805502F00302A34211D301EB86
:10284000840162B100F5805000230468D80024FAA6
:1028500000F0C854013398B28242F7D111440846BF
:1028600070BD2E6841F823600133E6E74A780B78A3
:10287000012A00EB431012D1D0F80029002A06DB10
:102880002BB1D0F8003923F08043C0F80039D0F8DC
:10289000003943F40013C0F8003900207047D0F825
:1028A000002B002A06DB2BB1D0F8003B23F080433D
:1028B000C0F8003BD0F8003B43F40013C0F8003BE5
:1028C000EBE70B784A7800EB43100B79012AA3F170
:1028D0000203DBB20FD1D0F80029012B22F4001241
:1028E000C0F8002905D8D0F8003943F08053C0F86B
:1028F000003900207047D0F8002B22F40012012B81
:10290000C0F8002B9EBFD0F8003B43F08053C0F8C6
:10291000003BEEE7D0F8003823F4FE63C0F800383F
:10292000D0F80038090101F4FE611943C0F800181D
:1029300000207047D0F8003E23F00303C0F8003EAB
:10294000D0F8043823F00203C0F8043800207047A0
:10295000D0F8003E23F00303C0F8003ED0F804385E
:1029600043F00203C0F804380020704742698069D0
:1029700010407047D0F8183800F50060C069184062
:10298000000C7047D0F8183800F50060C069184096
:1029900080B2704700EB411100F50060D1F8082BC0
:1029A000406910407047D0F81028D0F8343800EB58
:1029B000411001F00F01CB4000F51060DB01806891
:1029C000DBB2134318407047406900F001007047C4
:1029D000D0F8003923F4FF6323F00703C0F800396F
:1029E000D0F8043843F48073C0F8043800207047EE
:1029F00030B5056C104CA54200F5306303D9D0F812
:102A0000004B002C16DB00241C611C6944F40024DC
:102A10001C611C6944F018041C611C69012944F004
:102A2000C0441C6101BF5A61D0F8003B43F08023D1
:102A3000C0F8003B002030BD0A30544FD0F8D432EB
:102A400000EB830010B5D0F8C04284B1D0F8C43296
:102A50005BB194F80002FF2807D09B6894F801222C
:102A600021469847FF2384F80032002000E003202D
:102A700010BD00000A230380004870478800002032
:102A800070B5822106460F4800F093FB01210546F0
:102A90000C4800F08EFB812104460A4800F089FBB7
:102AA0000DB11022AA711CB1402222710022627164
:102AB00018B1402202710022427143230148338041
:102AC00070BD00BF44000020FFF7DABF70B582215F
:102AD00006460F4800F06DFB012105460C4800F04A
:102AE00068FB812104460A4800F063FB0DB1102207
:102AF000AA711CB1002222710222627118B1002257
:102B000002710222427143230148338070BD00BF2D
:102B10004400002038B5D0F8D432B033044650F821
:102B200023508DB102F071FDD4F8D432C5F80C02F7
:102B300004EB8304D5F80402D4F8C43205F503711C
:102B4000DB689847002038BD0320FCE7F8B5D0F8D3
:102B5000D462D0F8C87200EB86060A46D6F8C05296
:102B600035B3142401F00F0C04FB0C039C6984B1F1
:102B70004FF0240E0EFB0C77BF6CB4FBF7FC07FB89
:102B80001C4434B99C612246234602F08AFD20464B
:102B90000DE0D6F8C4321C690027C5F81472002C69
:102BA000F5D0D5F8080205F50471A0473846F8BD00
:102BB0000320FCE7D0F8D4322DE9F34100EB830386
:102BC0004FF00008D3F8C0728DF8058005460E4618
:102BD000ADF80680002F6ED00A7812F060042ED077
:102BE000202C64D1CC8891F801C00CB3120613D507
:102BF000D3F8C432224639469B6860469847F2882B
:102C0000072A28BF07223946284600F040FD4446DF
:102C1000204602B0BDE8F081402C28BF402487F850
:102C200000C287F801422246394600F045FDEEE732
:102C3000D3F8C43222469B6860469847E8E74F784D
:102C40000B2F34D801A353F827F000BF7D2C0008C8
:102C5000112C0008AF2C0008AF2C0008AF2C000886
:102C6000AF2C0008AF2C0008AF2C0008AF2C0008D8
:102C7000AF2C0008932C0008A72C000890F89C3279
:102C8000032B14D102220DF1060100F000FD3C4699
:102C9000BEE790F89C32032B09D101220DF105010A
:102CA00000F0F5FCB4E790F89C32032BB0D031462D
:102CB000284600F0C5FC0324AAE700BF38B5044647
:102CC0000025812102F0C9FC01212587204602F060
:102CD000C4FCA4F878518221204602F0BEFCD4F84E
:102CE000D432E56404EB8303D3F8C0228AB1D3F86D
:102CF000C4325B689847D4F8D432B03354F8230018
:102D000002F08CFCD4F8D432B03344F82350C4F829
:102D1000BC52002038BDF8B504464FF4077002F0ED
:102D200079FC054630B9D4F8D432B03344F82300E6
:102D3000022545E04FF40772002102F043FED4F86B
:102D4000D432B03344F82350237CC4F8BC52CBBBFC
:102D50004FF4007381210222204602F072FC01210F
:102D600021874FF400730222204602F06AFC0127FB
:102D700010230322A4F84E3082210823A4F878718E
:102D8000204602F05EFCD4F8D432A4F84C7004EB78
:102D900083030026D3F8C432C5F804621B68984741
:102DA000D5F80422C5F81462C5F81862002ABFD00D
:102DB000257C8DB94FF400733946204602F07AFC29
:102DC0002846F8BD402381210222204602F039FC2A
:102DD000012121874023C6E740233946204602F0DF
:102DE00069FC3546ECE739B1D0F8D43200EB83000A
:102DF000C0F8C4120020704703207047D0F8D432C6
:102E0000B03350F823302BB1C3F80812C3F81022A6
:102E10000020704703207047D0F8D432B03350F808
:102E200023301BB1C3F80412002070470320704701
:102E3000D0F8D432B03310B550F823207AB1D2F89C
:102E4000144201236CB9C2F81432D2F81032C362B2
:102E5000D2F80822812102F024FC204610BD032074
:102E6000FCE71846FAE7D0F8D422B03210B550F893
:102E7000222082B1047CD2F8042234B94FF40073CA
:102E8000012102F017FC204610BD4023012102F071
:102E900011FC0024F7E70324F5E778B10023C0F81C
:102EA000B832C0F8C432C0F8D03209B1C0F8B41298
:102EB000012380F89C32027002F066BB0320704749
:102EC00013B500230446ADF8063081B1CB6AC0F8D3
:102ED000B81223B10DF106009847C4F8D002D4F817
:102EE000D8320133C4F8D832002002B010BD03201C
:102EF000FBE702F09DBBD0F8B8320BB11B68184756
:102F00001846704708B5D0F8B8325B689847002873
:102F100018BF032008BD38B5044600F2AA2528468C
:102F200000F083FB012394F8AA12C4F89432B4F899
:102F3000B032C4F8983201F01F03012B08D0022BE5
:102F40000CD08BB929462046BDE8384000F04EB978
:102F500029462046BDE8384000F09CBA2946204664
:102F6000BDE8384000F0C5BA204601F08001BDE858
:102F7000384002F07BBB70B50446164609BBD0F85A
:102F80009432032B0CD1D0E9573293420AD99B1AC1
:102F90009A42C0F85C3128BF1A46314600F099FBCE
:102FA000002070BD90F89C32032B06D1D0F8B832C7
:102FB0001B6913B1C0F8D4129847204600F091FB6A
:102FC000EEE790F89C32032BEAD1D0F8B8329B6937
:102FD000002BE5D00022BDE87040C0F8D42218478D
:102FE00073B504461646002941D1D0F89422022A2E
:102FF0000FD1D0E90752954214D9AA1A0191C261A2
:10300000314600F051FB019B1A461946204602F05A
:1030100051FB94F8A03213B1002384F8A0320020B1
:1030200002B070BD0ED1826995420BD8D0F898528B
:10303000AA4207D20A46019100F036FB019BC4F870
:103040009832E1E794F89C32032B08D1D4F8B832D7
:10305000DB6823B10022C4F8D4222046984780219F
:10306000204602F003FB204600F046FBD1E790F833
:103070009C32032BD3D1D0F8B8325B69002BCED071
:103080000022C0F8D42202B0BDE870401847F8B55D
:10309000012380F89C32D0F8B83200210446C0F8F1
:1030A00094124160C0F8A41280F8A012B3B90026AF
:1030B00000224025114601274023204602F0C1FA94
:1030C000A4F86471C4F860512B4600228021204688
:1030D00002F0B7FAA78425623046F8BD5B68002B82
:1030E000E5D098470028E2D00326E1E701740020EC
:1030F000704790F89C32DBB280F89D32042380F850
:103100009C320020704790F89C32042B02BF90F84C
:103110009D32DBB280F89C320020704708B590F8F1
:103120009C22032A05D1D0F8B83213B1DB6903B170
:103130009847002008BDD0F8D422AE3208B550F828
:10314000222042B190F89C32032B02D1136A23B1A2
:103150009847002000E0032008BD1846FCE7D0F89F
:10316000D422AE3208B550F8222042B190F89C32F9
:10317000032B02D1536A23B19847002000E00320BB
:1031800008BD1846FCE700207047012208B580F80A
:103190009C22D0F8B8220AB9002008BD52680179F3
:1031A00090470028F8D00320F7E700207047002060
:1031B000704710B5428803789A420AD904782044AF
:1031C00023444478052C9BB2F6D184788C42F3D109
:1031D00010BD0020FCE710B58021044602F046FA3D
:1031E00020460021BDE8104002F040BA2DE9F3412D
:1031F0000D7805F06005202D04460E4614D0402DB4
:1032000012D0002D40F00A814F78092F00F206817C
:10321000DFE817F00B0132010401210104018600EF
:1032200016000401F300A200D4F8D432AE333146C4
:1032300054F823309B68204602B0BDE8F04118479F
:103240000023ADF806304B881A0A013A062A37D80F
:10325000DFE802F0041C293636515B00D0F8B432A6
:103260001B68207C0DF106019847F288002A00F0C7
:10327000FF80BDF806301BB39A4228BF1A46ADF84E
:1032800006200146204600F002FA1CE0027CD0F83D
:10329000B83232B99B6A0DF1060098470223437099
:1032A000E3E7DB6AF7E7DBB2052B09D8DFE803F0D9
:1032B000030F13171B1FD0F8B4325B68002BD0D15B
:1032C0002046FFF788FF284602B0BDE8F081D0F81D
:1032D000B4329B68F2E7D0F8B432DB68EEE7D0F89E
:1032E000B4321B69EAE7D0F8B4325B69E6E7D0F89C
:1032F000B4329B69E2E7037C002BE1D1D0F8B8320D
:103300000DF106005B6B9847AFE7037C002BD7D12C
:10331000D0F8B8320DF106001B6B98470723BEE7C3
:103320008B88002BCCD1CB88002BC9D14E887F2E27
:10333000C6D890F89C32032BC2D0F1B280F89E120E
:1033400002F0A6F9204600F0CCF91EB1022384F861
:103350009C32B8E70123FAE78E784D4F012E3E707C
:1033600003D9FFF738FF0325ADE790F89C32022B15
:103370005FFA83F809D0B8F1030F18D0FFF72BFFDD
:1033800039782046FFF7BEFDEDE7002E70D0012111
:103390004160FFF7B0FD0546204625B1FFF71BFF52
:1033A00084F89C828FE700F09CF90323CFE75EB995
:1033B000022380F89C3246603146FFF7A3FD204689
:1033C00000F08FF935467EE74168012950D0C9B237
:1033D000FFF798FD397861602046FFF78CFD0646BF
:1033E000002845D02046FFF7F6FE21792046FFF75A
:1033F00089FD022384F89C32E4E7CA88012A7FF41D
:103400005FAF90F89C120229CBB205D833B10146C8
:10341000002341F8083F35E7032B04D02046FFF78F
:10342000DAFE00254FE7011D2CE790F89C32013BA6
:10343000022BF3D8CA88022A7FF442AFD0F8A43214
:103440000146002B14BF0323012341F80C3F00F079
:103450001EF93D4637E74B88012B02D1C4F8A43250
:1034600006E0022B7FF42CAF8B881B0A80F8A03279
:10347000204600F036F926E790F89C32013B022BFB
:10348000CCD84B88012B7FF41EAF0023E6E700BFAA
:10349000140A002070B50B7803F06002402A04463D
:1034A0000E4601D05B061FD494F89C32013B022BE0
:1034B0001AD831790129204617D8FFF776FE88B946
:1034C000D4F8B8329B686BB1C4F8D40231462046B8
:1034D00098470546F3881BB915B9204600F001F955
:1034E000284670BD0325F5E72046FFF774FE00254A
:1034F000F6E770B50B788A880D7903F06003202B0E
:1035000004460E465AD0402B58D09BBB4B78012B1B
:1035100042D0032B27D06BBB90F89C32022BD9B240
:1035200068D0032926D105F00F0312F0800F4FF069
:10353000140202FB03036CD09B8CDBB105F07F0609
:10354000013606EB860600EB860615F07F0006D0F6
:103550002946204602F046F8003818BF01203060A6
:103560000222314651E090F89C32022BDAB237D079
:10357000032A03D02046FFF72EFE0BE04B8833B919
:10358000690604D0F38813B9294602F06FF8204683
:1035900000F0A7F8002070BD90F89C32022BDAB240
:1035A0001ED0032AE6D14B88002BF3D16B0602D044
:1035B000294602F064F8204600F093F82946204698
:1035C000FFF7F5FD0028E5D1D4F8B832C4F8D402ED
:1035D0009B68002BDED031462046BDE8704018477E
:1035E0006A06C7D0294602F041F88021204602F041
:1035F0003DF8CFE76906BDD113064CBF00F11401B9
:1036000000F5AA7100230B600222204600F03FF86B
:10361000C0E7B3F86431002BACD005F07F0614236B
:1036200003FB060606F5AA768FE70B7803704B7846
:1036300043704B8843808B888380CB88C3807047DE
:1036400010B58021044602F011F820460021BDE8A3
:10365000104002F00BB830B588B100240138234681
:103660000134055D002DFAD1DBB201335B0013801C
:103670000B7003234B70022310F8012F02B930BDE9
:10368000CA545A1CD2B202338D54DBB2F4E710B5DF
:1036900013460222C0E90633C0F894220A460021EC
:1036A00001F0FFFF002010BD08B513460A460021B7
:1036B00001F0F7FF002008BD10B513460322C0E952
:1036C0005633C0F894220A46002101F0F3FF00208F
:1036D00010BD08B513460A46002101F0EBFF00209B
:1036E00008BD08B504220023C0F8942219461A46E2
:1036F00001F0D7FF002008BD08B505220023C0F85F
:10370000942219461A4601F0D5FF002008BD08B5DD
:103710004FF0E0231B6901F079FB012803D0BDE8DD
:10372000084000F0E7B908BDEFF305832BB9064B5D
:10373000186828B901221A6070476FF005007047B9
:103740004FF0FF30704700BFA010002010B5EFF31E
:1037500005845CB9084B1A68012A0AD1074AD47754
:1037600002221A6001F0BCF8204610BD6FF005007F
:10377000FBE74FF0FF30F8E7A010002000ED00E07D
:10378000F0B587B00B4600210591EFF30584CCB965
:10379000C0B16AB395698D4208BF1825691E3729E3
:1037A000AC462AD85168C90727D456696EB1B40807
:1037B000D2E9027E116857B1BEF5916F02D312694A
:1037C00002B1E6B9059807B0F0BD8024F0E7BEF17C
:1037D000000FF7D11269002AF4D105AACDE900C281
:1037E000A2B201F04FF801281CBF00230593E9E7BE
:1037F00011464FF0180C8024EFE72046E3E7CDE9AF
:1038000001270095224601F003F80590DAE710B58C
:10381000EFF3058424B910B101F0CAF9204610BDB8
:103820006FF00500FBE7F7B505460E461446EFF3CB
:1038300005871FB10025284603B0F0BD0028F9D048
:103840000029F7D0DAB1D2E9023283B14F2AF1D997
:103850002269002AEED066694D43AE42EAD3009752
:1038600000F0EDFB05460028E4D0246811E0002AB2
:10387000E0D12369002BDDD16369002BDAD1284622
:103880000022314600F029FC05460028D2D0002C49
:10389000EBD12146284600F0FBFDCCE7034B03604B
:1038A000034B0B6080231360704700BF180C00208F
:1038B000180A0020034B0360034B0B604FF4807326
:1038C00013607047A8140020A410002000F1080322
:1038D0004FF0FF32C0E9022343600361002303601D
:1038E000704700230361704743684B609A688A60A1
:1038F0009A685160996003680861013303607047FA
:1039000030B50C68631C0AD103695A684A6091603B
:103910008B605960036808610133036030BD00F1BA
:103920000802134652681568A542FAD9EDE7D0E9B6
:10393000011203698A6051605968814208BF5A6068
:10394000002202611A68013A1A6018687047000084
:1039500008480068006880F308884FF0000080F392
:10396000148862B661B6BFF34F8FBFF36F8F00DF6D
:1039700000BF000008ED00E0DFF80C00016841F432
:10398000700101607047000088ED00E082B0002304
:1039900001930D4B1B68013308D04FF0500383F3A4
:1039A0001188BFF36F8FBFF34F8FFEE74FF05003C7
:1039B00083F31188BFF36F8FBFF34F8F019B002BF1
:1039C000FCD002B0704700BF940000204FF080731D
:1039D00040F8043C074B40F80C3C21F001016FF02B
:1039E000020340F8081C40F8202C40F8243C4438DE
:1039F000704700BF8D390008000000000000000083
:103A0000074B19680868B0E8F04F80F30988BFF3E6
:103A10006F8F4FF0000080F311887047AFF3008084
:103A2000985500204FF0500383F31188BFF36F8F38
:103A3000BFF34F8F0A4A13680133012B13600ED175
:103A40004FF0E023D3F8043DDBB243B14FF0500315
:103A500083F31188BFF36F8FBFF34F8FFEE770477B
:103A600094000020084A136843B94FF0500383F3D1
:103A70001188BFF36F8FBFF34F8FFEE7013B1360D9
:103A80000BB983F3118870479400002000000000F8
:103A9000EFF30980BFF36F8F154B1A681EF0100FFC
:103AA00008BF20ED108A20E9F04F10602DE90900D1
:103AB0004FF0500080F31188BFF34F8FBFF36F8F2B
:103AC00001F09AF84FF0000080F3118809BC1968E2
:103AD0000868B0E8F04F1EF0100F08BFB0EC108A75
:103AE00080F30988BFF36F8F704700BFAFF300808A
:103AF0009855002008B54FF0500383F31188BFF3A9
:103B00006F8FBFF34F8F00F049FF28B14FF0E023D4
:103B10004FF08052C3F8042D002383F3118808BDB1
:103B20004FF0E022002313619361054B4FF47A714B
:103B30001B68B3FBF1F3013B53610723136170472B
:103B4000000000204FF0E02337B5D3F8001D3A4ABB
:103B5000914208D14FF0500383F31188BFF36F8F68
:103B6000BFF34F8FFEE7D3F8002D344B9A4208D1B4
:103B70004FF0500383F31188BFF36F8FBFF34F8F64
:103B8000FEE72F4B1A78D2B20192FF221A701B78EF
:103B90002C4ADBB28DF803309DF8033003F050035C
:103BA0001370294A0723136000219DF803000006C3
:103BB00003F1FF340CD411B1032B136011D04FF07B
:103BC000500383F31188BFF36F8FBFF34F8FFEE76E
:103BD0009DF803305B00DBB28DF8033001212346F2
:103BE000E3E74FF440731360019B154A4FF0E02464
:103BF000DBB21370D4F8203D43F47003C4F8203DC9
:103C0000D4F8203D43F07043C4F8203DFFF788FF0F
:103C10000E4B00251D60FFF7AFFED4F8343F43F094
:103C20004043C4F8343FFFF793FE00F0E5FFFFF791
:103C3000ADFE284603B030BD71C20F4170C20F41C6
:103C400000E400E030190020341900209400002026
:103C5000EFF305830F2B0ED9114A9B5C114A1278A2
:103C60009A4208D94FF0500383F31188BFF36F8F46
:103C7000BFF34F8FFEE74FF0E0230B4AD3F80C3D24
:103C8000126803F4E063934208D94FF0500383F3C2
:103C90001188BFF36F8FBFF34F8FFEE7704700BFF0
:103CA000F0E300E0301900203419002010B5104B6B
:103CB0001A461B688342FBD354681119884201BF1E
:103CC0004168104609195160446801198B420CD1B2
:103CD000084909688B4203D059682144416019683A
:103CE0000160904218BF106010BD1946F8E700BF90
:103CF00050550020381900202DE9F041044600F00D
:103D00003FFE4249424D0B680BBB424A56071FBF5C
:103D1000D01D20F0070002F57052131A0CBF4FF4AB
:103D20007053024613443C4E083B23F00703002027
:103D300070603260C3E90000981AC2E900300B607D
:103D4000364B1860364B18604FF000432B602E68DE
:103D5000264255D1002C46D004F1080360071CBF51
:103D600023F007030833002B4AD02D4F3C689C42B8
:103D700046D3294A15686868984204D2D5F800C02D
:103D8000BCF1000F15D10968A94239D02968D2F8D1
:103D900000801160C21A102A12D9E81841070BD00E
:103DA0004FF0500383F31188BFF36F8FBFF34F8F32
:103DB000FEE72A466546DEE742606B60FFF776FF66
:103DC0006A681649A41A1643164A08683C6000231C
:103DD0002B6013686E60844203F1010338BF0C60EE
:103DE000136008F1080400F06FFE63070AD04FF07B
:103DF000500383F31188BFF36F8FBFF34F8FFEE73C
:103E00000024F0E72046BDE8F08100BF381900200B
:103E10003C5500203C1900205055002044550020FE
:103E2000405500204855002010B5044690B31A4A6A
:103E300050F8043C1268134208D14FF0500383F34A
:103E40001188BFF36F8FBFF34F8FFEE750F8081C48
:103E500041B14FF0500383F31188BFF36F8FBFF36D
:103E60004F8FFEE723EA020340F8043C00F088FD90
:103E70000A4A54F8043C1168A4F108000B4413608A
:103E8000FFF714FF064A1368BDE8104001331360C2
:103E900000F01ABE10BD00BF3C5500204055002068
:103EA0004C55002010B50446FFF7BCFDA46BFFF78E
:103EB000D9FDB4FA84F0400910BDF8B51546026C7E
:103EC000866B044652B9076847BB806800F0AEFFB6
:103ED000A76005460136A6632846F8BD65B9406867
:103EE000FCF778F96368226C1344A268636093421C
:103EF000F0D323686360EDE7C068FCF76BF9226CD0
:103F0000E36851429B1A2268E36093423EBFA36874
:103F10005B18E360022D01D116B1013E0025D9E7FF
:103F20003546D7E7034610B41A6C08466AB1DC6818
:103F3000996814448C4228BF1968DC6028BFD96096
:103F4000D9685DF8044BFCF745B95DF8044B704740
:103F500070B50446FFF766FD94F8455004F1240659
:103F60006DB2002D14DCFF2384F84530FFF77AFD95
:103F7000FFF758FD94F8445004F110066DB2002D7F
:103F800012DCFF2384F84430BDE87040FFF76ABDBF
:103F9000636A002BE7D0304600F0A6FE08B100F0BF
:103FA0002FFF013D6DB2DCE72369002BE9D03046DD
:103FB00000F09AFE08B100F023FF013D6DB2DEE78C
:103FC00038B50D46044640B94FF0500383F31188CD
:103FD000BFF36F8FBFF34F8FFEE7FFF723FDD4E9E9
:103FE0000F31226862604B43D0185B1A1A44A060FC
:103FF000FF230020A063E26084F8443084F8453059
:10400000A5B9236973B104F1100000F06DFE48B149
:104010004FF0E0234FF08052C3F8042DBFF34F8FD1
:10402000BFF36F8FFFF71EFD012038BD04F11000B4
:10403000FFF74CFC04F12400FFF748FCF2E713B54E
:104040001C4640B94FF0500383F31188BFF36F8FC4
:10405000BFF34F8FFEE743B94FF0500383F311884E
:10406000BFF36F8FBFF34F8FFEE74AB191B94FF0A7
:10407000500383F31188BFF36F8FBFF34F8FFEE7B9
:1040800041B14FF0500383F31188BFF36F8FBFF33B
:104090004F8FFEE750230193019B502B08D04FF028
:1040A000500383F31188BFF36F8FBFF34F8FFEE789
:1040B000002908BF2246019B22600123C4E90F01A9
:1040C00084F8463019462046FFF77AFF9DF81030F5
:1040D00084F84C30204602B010BDF8B50D461746A6
:1040E000064640B94FF0500383F31188BFF36F8F3A
:1040F000BFF34F8FFEE748435030FFF7FDFD044606
:1041000070B1002380F8463065B100F15003C4E976
:104110000F65236001212046FFF752FF84F84C70A1
:104120002046F8BD0346F2E72DE9F04385B0884606
:1041300001921F46044640B94FF0500383F31188A3
:10414000BFF36F8FBFF34F8FFEE751B9036C43B1DD
:104150004FF0500383F31188BFF36F8FBFF34F8F7E
:10416000FEE7022F0BD1E36B012B08D04FF0500379
:1041700083F31188BFF36F8FBFF34F8FFEE700F01B
:1041800045FE064650B9019B4BB14FF0500383F3F7
:104190001188BFF36F8FBFF34F8FFEE700264FF0FC
:1041A000000937E0019D1DB9FFF75CFC002052E0DB
:1041B00016B902A800F0DCFDFFF754FC00F0E0FBAC
:1041C000FFF730FC94F84430FF2B08BF84F844908C
:1041D00094F84530FF2B08BF84F84590FFF742FC68
:1041E00001A902A800F0D0FD00284AD1FFF71AFC6F
:1041F000A26BE36B9A4231D1FFF734FC019904F1D1
:10420000100000F039FD2046FFF7A2FE00F05CFC34
:1042100060B30126FFF706FCA26BE36B9A4201D361
:10422000022FBFD13A4641462046FFF746FE636A59
:104230001BB104F1240000F057FD48B14FF0E0231A
:104240004FF08052C3F8042DBFF34F8FBFF36F8F31
:10425000FFF708FC012005B0BDE8F083FFF702FC82
:104260002046FFF775FE00F02FFCD2E74FF0E02369
:104270004FF08052C3F8042DBFF34F8FBFF36F8F01
:10428000C7E72046FFF764FE00F01EFC8EE72DE92D
:10429000F843894690461F46044640B94FF0500304
:1042A00083F31188BFF36F8FBFF34F8FFEE751B9D0
:1042B000036C43B14FF0500383F31188BFF36F8F4A
:1042C000BFF34F8FFEE7022F0BD1E36B012B08D01A
:1042D0004FF0500383F31188BFF36F8FBFF34F8FFD
:1042E000FEE7FFF7B5FCEFF311864FF0500383F3C1
:1042F0001188BFF36F8FBFF34F8FA26BE36B9A42AE
:1043000001D3022F23D194F84550A36B6DB23A46E6
:1043100049462046FFF7D1FD6B1C13D1636A0BB9E8
:1043200001200BE004F1240000F0DEFC0028F7D0AF
:10433000B8F1000FF4D00120C8F8000086F311880E
:10434000BDE8F88301356DB284F84550E8E70020F8
:10435000F4E72DE9FF410F460192044640B94FF0C2
:10436000500383F31188BFF36F8FBFF34F8FFEE7C6
:1043700051B9036C43B14FF0500383F31188BFF37D
:104380006F8FBFF34F8FFEE700F040FD064650B938
:10439000019B4BB14FF0500383F31188BFF36F8F34
:1043A000BFF34F8FFEE700264FF000083DE0019D70
:1043B0001DB9FFF757FB002056E016B902A800F020
:1043C000D7FCFFF74FFB00F0DBFAFFF72BFB94F86D
:1043D0004430FF2B08BF84F8448094F84530FF2B0D
:1043E00008BF84F84580FFF73DFB01A902A800F053
:1043F000CBFC002841D12046FFF754FDB8B301990A
:1044000004F1240000F038FC2046FFF7A1FD00F085
:104410005BFB48B94FF0E0234FF08052C3F8042D06
:10442000BFF34F8FBFF36F8F0126FFF7FBFAA56B2A
:10443000002DBCD039462046013DFFF773FDA56332
:10444000236973B104F1100000F04EFC48B14FF045
:10445000E0234FF08052C3F8042DBFF34F8FBFF31A
:104460006F8FFFF7FFFA012004B0BDE8F08120460E
:10447000FFF76EFD00F028FBD6E72046FFF768FD4A
:1044800000F022FB2046FFF70DFD0028CCD092E77C
:1044900010B5074A002352F833402CB942F83310C4
:1044A00002EBC302506010BD0133082BF3D1FAE7D1
:1044B0005855002070B504460D461646FFF7B2FA6F
:1044C00094F84430FF2B04BF002384F8443094F860
:1044D0004530FF2B04BF002384F84530FFF7C2FAB4
:1044E000A36B2BB93246294604F1240000F0DEFB11
:1044F0002046BDE87040FFF72BBD00002DE9F041DC
:104500000446FFF78FFA304B304E1A68304F0132B5
:104510001A603568002D4BD134601B68012B1FD108
:10452000B84640460135FFF7D1F9382D08F1140897
:10453000F7D1DFF8C480274D4046FFF7C7F928467A
:10454000FFF7C4F92448FFF7C1F92448FFF7BEF983
:104550002348FFF7BBF9234BC3F80080224B1D60B3
:10456000224A136801331360214A63641168E36AC5
:1045700014208B4200FB037004F1040188BF136018
:10458000FFF7B2F9FFF76EFA1A4B1B6873B1336885
:10459000DA6AE36A9A4209D24FF0E0234FF0805280
:1045A000C3F8042DBFF34F8FBFF36F8FBDE8F081C9
:1045B000104B1A68E36A002AD2D13268D26A9A4252
:1045C00098BF3460CCE700BF045A00209855002003
:1045D000A45500202C5A00204C5A0020785A002064
:1045E000645A00209C550020A0550020105A00203D
:1045F000145A0020605A0020185A0020F8B5154BB4
:10460000154D1C680646286804300F46FFF78FF9E1
:10461000731C07D137B129681048BDE8F840043150
:10462000FFF762B92B68A4195C6007D30C4B1868BC
:104630002968BDE8F8400431FFF762B9094B1868F2
:1046400029680431FFF75CF9074B1A68A24288BF5A
:104650001C60F8BD8C5A002098550020645A002038
:10466000A05500209C550020405A0020064A13689F
:104670001968064B19B94FF0FF321A60704712687B
:10468000D268D2685268F8E79C550020405A002052
:1046900010B50446583001F00BFA94F885343BB954
:1046A000206BFFF7C1FB2046BDE81040FFF7BCBB05
:1046B000012BF8D0022B08D04FF0500383F3118860
:1046C000BFF36F8FBFF34F8FFEE710BD80B5134C64
:1046D000134F144D236873B9134B1B68012BF8D982
:1046E0004FF0E0234FF08052C3F8042DBFF34F8FFB
:1046F000BFF36F8FEDE7FFF795F9FB68DE68301DBC
:10470000FFF715F92B68013B2B602368013B236001
:10471000FFF7A8F93046FFF7BBFFDBE7085A002098
:10472000785A0020045A0020A45500202DE9F047B3
:10473000DDE909844FEA82094A4606460D46206BA8
:10474000A5211F4601F03EF9236BA9F104094B4452
:1047500023F00709002D52D06B1E04F134020F35EF
:1047600013F8011F02F8011B09B1AB42F8D1002375
:1047700084F84330089D372D28BF37254FF0000AB5
:10478000E562E564201DC4F850A0FFF7AAF8C5F162
:10479000380504F11800FFF7A4F8C4F880A44FF41A
:1047A000856251462461A561646284F884A404F1A1
:1047B000580001F007F904F55173E36504F56B73D4
:1047C000236604F21443636601220023C4E94023F4
:1047D0000C4A0D4BC4E942230C4BC4F810310B2397
:1047E000A4F814313A4631464846FFF7EFF8206006
:1047F000B8F1000F01D0C8F80040BDE8F08784F898
:104800003450B7E70E33CDAB34126DE6ECDE050065
:1048100070B586B0DDE90B5445B94FF0500383F312
:104820001188BFF36F8FBFF34F8FFEE744B94FF08E
:10483000500383F31188BFF36F8FBFF34F8FFEE7F1
:104840004FF491660596059EB6F5916F08D04FF02E
:10485000500383F31188BFF36F8FBFF34F8FFEE7D1
:104860002563022584F8855404AD01950A9D0294C0
:104870000095059EFFF75AFF2046FFF73FFE04987C
:1048800006B070BD2DE9F043074685B0900088461C
:1048900016469946FFF730FA0546F0B14FF491609D
:1048A000FFF72AFA0446A8B1002380F885340D9B4F
:1048B000056301930C9B0290009332464B464146A0
:1048C0003846FFF733FF2046FFF718FE012005B0FA
:1048D000BDE8F0832846FFF7A7FA4FF0FF30F6E770
:1048E00010B588B0002407AA06A905A8CDE905449B
:1048F000FEF7D4FF059B0293069B079A19491A48B5
:10490000CDE900432346FFF783FF40B300F024FBCB
:10491000012819D14FF0500383F31188BFF36F8F33
:10492000BFF34F8F114B124A1B6858331360114B62
:104930004FF0FF321A60104B1860104B1C6008B02B
:10494000BDE81040FFF7FEB8013008D14FF050032A
:1049500083F31188BFF36F8FBFF34F8FFEE708B06B
:1049600010BD00BF685F0008CD46000898550020C4
:10497000FC000020405A0020605A00208C5A002081
:10498000024A136801331360704700BF0C5A0020BD
:10499000014B1868704700BF8C5A00203F4B1B68C2
:1049A0002DE9F74F002B73D13D4B1D6801351D607C
:1049B000BDB93C4B1A68126842B14FF0500383F303
:1049C0001188BFF36F8FBFF34F8FFEE7364A196828
:1049D000106818601160354A136801331360FFF7DF
:1049E00045FE334E334F3368DFF8D4809D424FF09D
:1049F000000411D2D8F80030DB6A14225343FB586C
:104A0000022B2D4B1B6828BF0124002B18BF01244B
:104A1000204603B0BDE8F08FDFF88890DFF8A4A04F
:104A2000D9F800301B681BB94FF0FF333360E1E762
:104A3000D9F80030DB68D3F80CB0DBF804209542DD
:104A400001D23260D6E70BF1040108460191FEF76E
:104A50006EFFDBF82820019922B10BF11800FEF758
:104A600066FF0199DBF82C00DAF80020142390424D
:104A700088BFCAF8000003FB0070FEF735FFD8F8C6
:104A80000010DBF82C20CB6A9A4228BF0124C7E72C
:104A90000A4A1368013313600024B9E70C5A002056
:104AA0008C5A00209C550020A0550020445A00201C
:104AB000405A0020A4550020905A0020485A002057
:104AC00098550020145A0020F7B5314C236843B99B
:104AD0004FF0500383F31188BFF36F8FBFF34F8FF5
:104AE000FEE7FEF79FFF2368013B236024682CB19B
:104AF0000024FEF7B7FF204603B0F0BD254B1B682E
:104B0000002BF5D0244D254E254F1EE0EB68DC68C8
:104B100004F11800FEF70BFF211D08460191FEF776
:104B200006FFE36A326801991420934200FB037088
:104B300088BF3360FEF7D8FE1A4BE26A1B68DB6A57
:104B40009A4202D3184B01221A602B68002BDDD148
:104B50000CB1FFF78BFD154D2C6844B1124E0127A7
:104B6000FFF71CFF00B13760013CF9D12C600E4B00
:104B70001B68002BBCD04FF0E0234FF08052C3F8ED
:104B8000042DBFF34F8FBFF36F8F0124B1E700BF38
:104B90000C5A0020045A00204C5A0020145A0020BD
:104BA000A455002098550020905A0020485A002013
:104BB00008B550B94FF0E0234FF08052C3F8042DF0
:104BC000BFF34F8FBFF36F8F08BD0A4B196841B118
:104BD0004FF0500383F31188BFF36F8FBFF34F8FF4
:104BE000FEE7FFF7CDFEFFF709FDFFF76DFF002899
:104BF000E0D0E9E70C5A0020194B1A68194B70B540
:104C000012B101221A6070BD174D1A602A68174947
:104C1000142606FB02F3C818CC58ACB1446808331C
:104C2000646844600B449C4204BF6368436014237F
:104C300003FB02114B68D9680D4B19602A601B6891
:104C40000C4A58331360DEE742B94FF0500383F348
:104C50001188BFF36F8FBFF34F8FFEE7013AD8E79C
:104C60000C5A0020905A0020145A0020A45500200D
:104C700098550020FC00002010B50C4640B94FF0BC
:104C8000500383F31188BFF36F8FBFF34F8FFEE79D
:104C9000054B19681831FEF733FE20460121BDE8A7
:104CA0001040FFF7ABBC00BF9855002038B50D464B
:104CB000144640B94FF0500383F31188BFF36F8F50
:104CC000BFF34F8FFEE7074B19681831FEF70CFE54
:104CD000002C21460CBF28464FF0FF30BDE838407D
:104CE000FFF78CBC98550020C36813B5DC6844B945
:104CF0004FF0500383F31188BFF36F8FBFF34F8FD3
:104D0000FEE704F1180108460191FEF710FE124B70
:104D100001991B68EBB9211D08460191FEF707FEBA
:104D20000E4AE36A10680199834288BF13600C4AF7
:104D3000142000FB0320FEF7D7FD0A4BE26A1B6834
:104D4000DB6A9A4285BF084B01200020186002B040
:104D500010BD0648EFE700BF0C5A0020145A00208F
:104D6000A455002098550020905A00204C5A00204D
:104D7000034B1B680360034B1B684360704700BF15
:104D8000445A00208C5A002070B50C46054640B9A4
:104D90004FF0500383F31188BFF36F8FBFF34F8F32
:104DA000FEE741B94FF0500383F31188BFF36F8FD3
:104DB000BFF34F8FFEE7FEF735FE0F4B19682368F0
:104DC0005A1C10D00D482E6800686A68864201D0CF
:104DD0008A420FD9881A83420AD95B1A1344236086
:104DE0002846FFF7C5FF0024FEF73CFE204670BDB5
:104DF000002323600124F7E78C5A0020445A002046
:104E0000014B01221A607047905A0020054B1B6825
:104E100033B1054B1868B0FA80F040094000704784
:104E200001207047605A00200C5A002013B510B9B9
:104E3000002002B010BD1C4B1C68844208D04FF00B
:104E4000500383F31188BFF36F8FBFF34F8FFEE7DB
:104E5000236D43B94FF0500383F31188BFF36F8F75
:104E6000BFF34F8FFEE7E16AE26C013B914223659D
:104E7000DED0002BDCD1211D08460191FEF757FD45
:104E8000E36C0199E362C3F13802A261074A10683A
:104E9000834288BF1360064A142000FB0320FEF7FC
:104EA00023FD0120C5E700BF98550020145A0020BB
:104EB000A4550020F7B5114CFEF7B4FD2568BDB927
:104EC0000F4F104E3846FEF701FD3046FEF7FEFC50
:104ED0000D4B0E4A1F600E4B10211E600A200D4B19
:104EE0000095FFF7ACF8206010B10B49FFF7D0FA3E
:104EF00003B0BDE8F040FEF7B5BD00BFB85B0020D1
:104F00003C5B0020505B0020945A00209C5A0020FB
:104F1000985A0020685B00206D5F0008914208B538
:104F2000416000610AD8D31A826993420DD2084BBE
:104F3000011D1868FEF7E4FC002008BD9A4201D26A
:104F4000994202D2034B011DF3E70120F5E700BFB0
:104F5000985A0020945A002010B588B0FFF7AAFF95
:104F6000124B1B68B3B1002407AA06A905A8CDE916
:104F70000544FEF79FFC059B0293069B01930223C9
:104F80000093079A0A490B482346FFF741FC0A4B56
:104F9000186040B94FF0500383F31188BFF36F8F4F
:104FA000BFF34F8FFEE7012008B010BDB85B0020B3
:104FB000725F0008C1500008BC5B00207FB5164638
:104FC00004461A4640B94FF0500383F31188BFF3EB
:104FD0006F8FBFF34F8FFEE70D4D286880B1052915
:104FE000CDE9001602940DDCFFF710FF0023022824
:104FF00008BF089A286818BF1A466946FFF794F850
:1050000004B070BD00236946FFF741F9F8E700BF1F
:10501000B85B00202DE9FF47DFF8A0800646FFF7C8
:10502000B7FCD8F80030834205460BD9214F4FF02A
:1050300000093B681A686AB91F4A11683960136031
:10504000012300E0002328463360C8F8005004B074
:10505000BDE8F087DB68DC68D3F800A0211D0846B6
:105060000391FEF764FC236A2046984794F82830A1
:10507000039913F0040FDCD0A36953449A4505D279
:10508000386863602461FEF73BFCD2E70023CDF86B
:105090000090524619462046FFF790FF0028C8D1DD
:1050A0004FF0500383F31188BFF36F8FBFF34F8F1F
:1050B000FEE700BF945A0020985A0020645B00204D
:1050C0002DE9F0436E4D6F4E89B02B68D3F8008008
:1050D000B8F1000F35D0DB68D3F800800024FFF76B
:1050E0004FFC04A8FFF796FF049B8146002B69D173
:1050F000002C4CD1404550D3FFF7E6FC2B68DB6811
:10510000DF68381DFEF713FC97F8283058071AD5CA
:10511000B96943464A4641443846FFF7FFFEB0B1FD
:1051200000942346424621463846FFF747FF70B9B0
:105130004FF0500383F31188BFF36F8FBFF34F8F8E
:10514000FEE70124CBE723F0010387F828303B6A10
:10515000384698473068002204A9FFF7FAF800287B
:10516000B3D0049B0698002B2FDB069C6369002BB1
:1051700032D103A8FFF74EFF049B0246092BE9D862
:10518000DFE803F02E2E2E575E762E2E575E3E4B16
:105190001B681C68B4FA84F4640930682246A8EBE2
:1051A0000901FFF787F9FFF78FFC0028D2D14FF0F4
:1051B000E0234FF08052C3F8042DBFF34F8FBFF3AD
:1051C0006F8FC7E7FFF780FCC4E7059B07999847F7
:1051D000049B002BBEDBC8E7201DFEF7A8FBC8E739
:1051E00094F82830A16943F0010384F82830059B26
:1051F00020461944FFF792FE0028ABD0236A2046D0
:10520000984794F828305907A4D5A2690599002336
:105210000A44009319462046FFF7D0FE002899D192
:105220004FF0500383F31188BFF36F8FBFF34F8F9D
:10523000FEE794F8283023F0010384F8283089E74A
:1052400094F8283043F0010384F828300599A161CF
:1052500041B94FF0500383F31188BFF36F8FBFF351
:105260004F8FFEE7034601442046FFF757FE71E7E4
:1052700094F828309A07DED42046FEF7D5FD69E77A
:10528000945A0020B85B0020985A002008B50F49B6
:105290000F480022FDF701FE08B1FBF7EDF90D49BB
:1052A0000B48FDF70DFE08B1FBF7E6F90A4908487F
:1052B000FDF799FD08B1FBF7DFF90548FDF719FE89
:1052C00018B1BDE80840FBF7D7B908BDAC00002015
:1052D000C05B00200C0000209800002000207047D8
:1052E000002070470020704738B5074D0968044614
:1052F000FBF7AAF921462846FDF78EFD2846FDF763
:10530000B2FD002038BD00BFC05B002010B5064CC8
:10531000064900222046FDF771FD05492046FDF7AC
:105320007BFD002010BD00BFC05B00209C660020FC
:105330009C5E002010B5094CD4F8BC32D3F814326E
:105340000A4643B901462046FDF758FD2046BDE810
:105350001040FDF76DBD012010BD00BFC05B0020F7
:10536000122301480B807047C80000200423014825
:105370000B807047DC000020002370B54D1C1E46DA
:10538000040FB0F1204F34BF3034373401F81340EC
:1053900005F813600133DCB2A2424FEA0010EFD8E7
:1053A00070BD00001A2310B50B800A4BD3F8100A09
:1053B000D3F8182A80180AD0D3F8144A06490822CC
:1053C000FFF7DAFF042210312046FFF7D5FF03482C
:1053D00010BD00BF0070FF1FE2000020E0000020B1
:1053E00010B5044C04480A462146FEF734F920461D
:1053F00010BD00BF9C6E00207A5F000810B5044C01
:1054000004480A462146FEF726F9204610BD00BF93
:105410009C6E0020825F000810B5044C04480A46C8
:105420002146FEF718F9204610BD00BF9C6E0020F3
:105430008D5F000810B5044C04480A462146FEF76B
:105440000AF9204610BD00BF9C6E0020985F00083E
:1054500030B5044689B01422002103A800F0B2FA46
:105460002368B3F1A04F2ED1184C1948002501959F
:10547000236B43F001032363236B03F001030193C8
:105480004FF4C052019B0223CDE9032303210A23D9
:10549000CDE9061303A9FBF75FFA636B43F08003C2
:1054A00063630295636C43F480436364636C03F449
:1054B0008043029343202A460521029BFBF70CFA06
:1054C0004320FBF73BFA09B030BD00BF0038024073
:1054D0000000024000F2C441D0F80805FDF71BBDF2
:1054E000242303FB0103D0F80805D3F88C22FDF731
:1054F00042BD242303FB0103D0F80805DA6CFDF755
:105500006FBDD0F80805FDF709BEC368022B10B5C2
:10551000044601D0FBF7B0F8D4F808050121FDF7E7
:10552000E5FDD4F80805BDE81040FDF7B0BD00006A
:1055300010B50446D0F80805FDF7DBFD2268D2F867
:10554000003E43F00103C2F8003E236A23B1034A40
:10555000136943F00603136110BD00BF00ED00E0C6
:10556000D0F80805FDF7CFBDD0F80805FDF7F7BD69
:10557000D0F80805FDF7DFBDD0F80805FDF703BE3C
:10558000D0F80805FDF701BE08B5027832BB144B10
:105590000421C3F80805C0F8C8324FF0A040C3E9A1
:1055A000000102211846C3E90312C3E90612C3E948
:1055B0000822C3E90B22FBF759FB08B1FBF75CF8A3
:1055C00080210748FCF7A6F8402200210448FCF798
:1055D00081F8034880220121FCF77CF8002008BDF7
:1055E0009C70002011F0800FD0F8C8324FF02402D8
:1055F0001BBF01F07F0102FB013302FB013393F873
:105600003E0008BF93F87E027047D0F8C802FBF74F
:1056100070BC000000487047A8750020704700006B
:1056200003289ABF014B185C03207047A65F00084F
:1056300008B5D0F8C802FBF79EFBBDE80840FFF7AD
:10564000EFBF10B51446D0F8C8021A462346FBF740
:10565000C5FBBDE81040FFF7E3BF08B5D0F8C802AE
:10566000FBF7F4FBBDE80840FFF7DABF08B5D0F858
:10567000C802FBF766FCBDE80840FFF7D1BF08B5DC
:10568000D0F8C802FBF797FCBDE80840FFF7C8BF99
:1056900008B5D0F8C802FBF78DFBBDE80840FFF75E
:1056A000BFBF08B5D0F8C802FBF72BFCBDE8084027
:1056B000FFF7B6BF08B5D0F8C802FBF7F6FBBDE8A8
:1056C0000840FFF7ADBF2DE9F04786468C460846F7
:1056D000089E154674461946002B40F0AB80824266
:1056E000B2FA82F743D94FB1C7F1200300FA07FCA1
:1056F0002EFA03F3BD4043EA0C0CBC404FEA154EB2
:10570000A8B2BCFBFEF8230C0EFB18CC08FB00F97A
:1057100043EA0C43994528D9EB1808F1FF3204D22B
:10572000994502D9A8F102022B44A3EB0903B3FB6C
:10573000FEFCA4B20EFB1C330CFB00F044EA034455
:10574000A04275D92C190CF1FF3304D2A04202D922
:10575000ACF102032C44241A43EA02401EB1FC407F
:10576000002334607360BDE8F0874246DDE702B98C
:10577000FFDEDFB9831A01214FEA154EA8B2B3FB51
:10578000FEFC220C0EFB1C330CFB00F842EA034328
:1057900098454BD9EB180CF1FF3204D2984502D949
:1057A000ACF102022B44A3EB0803C0E7C7F12003CE
:1057B00020FA03F2BD40B8402EFA03F303434FEA48
:1057C000154EA9B2B2FBFEFC0EFB1C201A0C0CFB02
:1057D00001F842EA0042904504FA07F422D9AA18D7
:1057E0000CF1FF3004D2904502D9ACF102002A44FA
:1057F000A2EB08029BB2B2FBFEFC0EFB1C220CFBD0
:1058000001F143EA024399420ED9EB180CF1FF3241
:1058100004D2994202D9ACF102022B445B1A42EA4B
:105820000041A9E76046E3E76246F7E76246BAE768
:10583000634690E7834205D90EB1C6E900E0002136
:10584000084690E7B3FA83F78FB9834201D37245D4
:105850000BD8BEEB020460EB030301209C46002E34
:1058600068D0C6E9004C00217DE73846F7E7C7F16C
:10587000200CBB4022FA0CF41C432EFA0CF120FA47
:105880000CF3B84001434FEA14490EFA07F5B3FB95
:10589000F9F81FFA84FE09FB18300B0C08FB0EFA0E
:1058A00043EA00439A4502FA07F23FD9E31808F1A8
:1058B000FF3004D29A4502D9A8F102002344A3EB99
:1058C0000A0389B2B3FBF9F809FB183308FB0EFE93
:1058D00041EA03418E452BD9611808F1FF3304D208
:1058E0008E4502D9A8F10203214443EA0040A0FBFF
:1058F0000298A1EB0E014145CE46434602D306D1A4
:105900004D4504D2B9EB020E68EB040301388EB1A9
:10591000B5EB0E0261EB030101FA0CFC22FA07F36E
:105920004CEA0303F940C6E900319CE74046C6E76C
:105930004346DAE7314616E7002301461A46184681
:1059400000F0FEB8014B1868704700BFFC00002053
:1059500038B5084B084D5B1B9C1007D0043B1D4419
:10596000013C55F804399847002CF9D1BDE838407E
:1059700000F0A6BAC45F0008C05F000870B50D4E05
:105980000D4D761BB61006D0002455F8043B0134AB
:105990009847A642F9D1094E094D761B00F08AFAC4
:1059A000B61006D0002455F8043B01349847A642AF
:1059B000F9D170BDB85F0008B85F0008C05F00088B
:1059C000B85F0008830730B548D0541E002A3FD086
:1059D000CAB2034601E0013C3AD303F8012B9D070C
:1059E000F9D1032C2DD9CDB245EA05250F2C45EA76
:1059F000054536D9A4F1100222F00F0C03F1200E58
:105A0000E6444FEA121C03F1100242E9045542E950
:105A1000025510327245F8D10CF1010214F00C0F4E
:105A200003EB021204F00F0C13D0ACF1040323F0CB
:105A300003030433134442F8045B9342FBD10CF09C
:105A400003042CB1CAB21C4403F8012B9C42FBD1C5
:105A500030BD64461346002CF4D1F9E703461446E2
:105A6000BFE71A46A446E0E72DE9F0410E680C4670
:105A70000546BEB137688FB1D7F80080B8F1000F86
:105A800008D0D8F8001009B1FFF7EEFF41462846CC
:105A900000F0F2F83946284600F0EEF83146284684
:105AA00000F0EAF821462846BDE8F04100F0E4B8ED
:105AB000224B1B68834240D0C16C70B5054681B152
:105AC00000268C593CB121462468284600F0D4F8C1
:105AD000002CF8D1E96C0436802EF2D1284600F073
